:020000040800F2
:10000000B0090020890100086719000813150008CD
:10001000651900087F030008911F00080000000018
:10002000000000000000000000000000A11A00080D
:10003000990300080000000099190008A31A00089D
:10004000A3010008A3010008A3010008A301000800
:10005000A3010008A3010008A3010008A3010008F0
:10006000A3010008A3010008A3010008A3010008E0
:10007000A3010008A3010008A3010008A3010008D0
:10008000810300088D030008A3010008A3010008F4
:10009000A3010008A3010008A3010008A3010008B0
:1000A000A3010008A3010008A3010008A3010008A0
:1000B000A3010008A91A0008A3010008A301000871
:1000C000A3010008A3010008A3010008A301000880
:1000D000A3010008A3010008851F0008A301000870
:1000E000A3010008A3010008A301000800F002F822
:1000F00000F03AF80AA090E8000C82448344AAF188
:100100000107DA4501D100F02FF8AFF2090EBAE885
:100110000F0013F0010F18BFFB1A43F0010318473B
:100120002C2500004C250000103A24BF78C878C167
:10013000FAD8520724BF30C830C144BF04680C60ED
:10014000704700000023002400250026103A28BF35
:1001500078C1FBD8520728BF30C148BF0B60704739
:100160001FB51FBD10B510BD00F0CFF81146FFF749
:10017000F7FF01F0F7FF00F0EDF803B4FFF7F2FF2F
:1001800003BC00F0F5F80000094880470948004723
:10019000FEE7FEE7FEE7FEE7FEE7FEE7FEE7FEE737
:1001A000FEE7FEE704480549054A064B7047000094
:1001B000A71A0008ED000008B0030020B0090020D5
:1001C000B0050020B0050020032A40F2308010F076
:1001D000030C00F0158011F8013BBCF1020F6244E2
:1001E00098BF11F801CB00F8013B38BF11F8013B73
:1001F000A2F1040298BF00F801CB38BF00F8013B20
:1002000011F0030300F04F80083AC0F0088051F865
:10021000043B083A51F804CBA0E80810F5E7121D9A
:100220005CBF51F8043B40F8043BAFF30080D207B9
:1002300024BF11F8013B11F801CB48BF11F8012B85
:1002400024BF00F8013B00F801CB48BF00F8012BA8
:1002500070474FF0000200B5134694469646203989
:1002600022BFA0E80C50A0E80C50B1F12001BFF46F
:10027000F7AF090728BFA0E80C5048BF0CC05DF8D5
:1002800004EB890028BF40F8042B08BF704748BF23
:1002900020F8022B11F0804F18BF00F8012B704797
:1002A00070477047704710B5203AC0F00B80B1E836
:1002B0001850203AA0E81850B1E81850A0E818509B
:1002C000BFF4F5AF5FEA027C24BFB1E81850A0E8A4
:1002D000185044BF18C918C0BDE810405FEA827CBE
:1002E00024BF51F8043B40F8043B08BF7047D207D5
:1002F00028BF31F8023B48BF11F8012B28BF20F876
:10030000023B48BF00F8012B7047754600F02CF8FF
:10031000AE4605006946534620F00700854618B0F2
:1003200020B5FFF73FFFBDE820404FF000064FF03B
:1003300000074FF000084FF0000B21F00701AC461A
:10034000ACE8C009ACE8C009ACE8C009ACE8C00939
:100350008D46704710B50446AFF300802046BDE8D7
:100360001040FFF70ABF0000004870474C03002010
:1003700001491820ABBEFEE7260002007047FEE7E9
:10038000014800F07BB80000C4020020014800F0E2
:1003900075B8000008030020704772B6FEE710B57C
:1003A00090F821100022022905D00421816380F8F1
:1003B0002020012010BD01680B6823F00E030B60A4
:1003C00001680B6823F001030B6090F84030C46BA8
:1003D000012101FA03F3636080F8211080F82020E6
:1003E000104610BD10B590F821100024022903D04A
:1003F0000421816301243DE001680A6822F00E02B5
:100400000A6001680A6822F001020A601A4A01685B
:10041000914201D1012121E0174A1432914201D1C8
:1004200010211BE0144A2832914201D1891515E0B0
:10043000114A3C32914201D189140FE00E4A5032E8
:10044000914202D14FF4803108E00B4A643291426C
:1004500002D14FF4801101E04FF08071064A083A52
:100460005160012180F82110002180F82010416B9B
:1004700001B18847204610BD080002402DE9F05F19
:10048000C16B0C6801680B68D0F840C0042202FA06
:100490000CF2494DDFF824A1494E4A4FDFF828B14C
:1004A000DFF828E122422CD05A072AD50A689206A2
:1004B00003D40A6822F004020A600168A94201D14B
:1004C000042219E0514501D1402215E0B14202D188
:1004D0004FF4806210E0B94202D14FF480420BE049
:1004E000594502D14FF4802206E0714502D14FF404
:1004F000800201E04FF080622F4908394A60C16AEA
:100500003BE04FF0020808FA0CF818EA040F4FF02D
:1005100000094FF0010235D05FEA837832D50B68CD
:100520009B0605D40B6823F00A030B6080F821209A
:100530000168A94201D1022219E0514501D12022CE
:1005400015E0B14202D14FF4007210E0B94202D17D
:100550004FF400520BE0594502D14FF4003206E04F
:10056000714502D14FF4001201E04FF000721249C0
:1005700008394A6080F82090816A00291AD0BDE8C5
:10058000F05F0847082505FA0CF5254212D01B0735
:1005900010D50B6823F00E030B6090F84010C36B6E
:1005A00002FA01F15960826380F8212080F82090DE
:1005B000016BE2E7BDE8F09F080002401C0002402A
:1005C0003000024044000240580002406C000240EB
:1005D00030B528B308C8134914221944B1FBF2F10D
:1005E0008900C16310498163022141771A6843F68B
:1005F000F0718A43D0E900142143D0E902452C432D
:1006000021430469214344692143846921431143FF
:10061000196000214163012242770177084630BD0D
:10062000012030BDF8FFFDBF0000024070B5044658
:1006300000F004F90546601C02D004480078044428
:1006400000F0FCF8401BA042FAD370BD0C00002063
:100650002DE9F84FDFF8B8910024A9F1040B2346E7
:100660000F2709F1040AABF1040EC9E00125A540EA
:100670002A40AA427DD1674ED1F804C0ACEB0608EF
:10068000B44532D014DCBCF1030F3AD009DCBCF124
:10069000000F2AD0BCF1010F1CD0BCF1020F31D1E8
:1006A0001DE0BCF1110F17D0BCF1120F2AD119E0D7
:1006B000B8F5881F19D006DCB8F5803F15D0B8F51D
:1006C000801F1FD111E0B8F5001F0ED0B8F5041F30
:1006D00018D10AE0CB6815E0CB681B1D12E0CB688F
:1006E00008330FE0CB680C330CE08B682BB1012B87
:1006F0004FF0080303D0456104E0042302E00561E4
:1007000000E00023FF2A01D8064601E000F10406BC
:100710004FEA840501D9A5F12005D6F8008007FA33
:1007200005FC28EA0C0803FA05F548EA0508C6F8AE
:1007300000804D68ED0062D5374DAE6946F0010688
:10074000AE61AD6924F0030605F001050095334D57
:1007500006EB050CDCF80850A607360F07FA06F87A
:1007600025EA0805DFF8B880404503D14FF00008BE
:1007700017E044E0DFF8AC80404502D14FF00108BB
:100780000FE0DFF8A480404502D14FF0020808E0F6
:10079000DFF89880404502D14FF0030801E04FF0A8
:1007A000040808FA06F848EA0508CCF808804D68FD
:1007B000D9F80060ED024D4601D5164300E096439E
:1007C0002E604D68DAF80060AD02554601D516433B
:1007D00000E096432E604D68DBF80060AD035D4697
:1007E00001D5164300E096432E604D68DEF80060A8
:1007F000ED03754601D5164300E096432E60641C58
:100800000D682A46E5407FF431AFBDE8F88F00005F
:1008100008040140000011100010024000000140D7
:1008200000080140000C014000100140001401408C
:100830000AB1016170470904FBE7000001488068C4
:10084000704700000C0000200248816802781144C3
:10085000816070470C000020074810B5016841F026
:1008600010010160032000F075F80F2000F006F879
:1008700000F024F8002010BD0020024070B50D4D9E
:1008800004464FF47A712878B1FBF0F00A49096800
:10089000B1FBF0F000F090F848B9102C07D200221C
:1008A0002146501E00F036F800206C6070BD01201B
:1008B00070BD00000C000020180000200C4808B596
:1008C000816941F001018161816901F001010091BB
:1008D000C16941F08051C161C06900F08050009051
:1008E0000448416821F0E06141F00071416008BDB9
:1008F0000010024000000140002809DB00F01F0248
:10090000012191404009800000F1E020C0F8001171
:1009100070470000F0B40E4B1B680C46C3F3022373
:10092000C3F10705042D00D90425191D072901D29B
:10093000002300E0DB1E012606FA05F1491E2140D6
:1009400099409E40761E16403143F0BC01F021BB19
:100950000CED00E0064900F0070208684FF6FF03BF
:10096000184040EA0220034A104308607047000024
:100970000CED00E00000FA050448054900684968EC
:10098000044AC1F30221515CC8407047180000209E
:1009900000100240422600080448054900684968E2
:1009A000044AC1F3C221515CC840704718000020BE
:1009B000001002404226000810B5401EB0F1807FB2
:1009C00001D3012010BD4FF0E02460610F216017BA
:1009D00001F0DFFA0020A06107202061002010BD97
:1009E0007047704770B590F83C20012A26D001244A
:1009F00080F83C40022280F83D2003685A689D68D8
:100A000022F070060A6832435A600D4B02689A421F
:100A100008D0B2F1804F05D00A4B9A4202D00A4B5F
:100A20009A4204D1496825F080031943916080F807
:100A30003D40002180F83C10084670BD022070BD8A
:100A4000002C0140000400400008004010B50400E4
:100A500003D094F83D0010B107E0012010BD002044
:100A600084F83C00204600F01FF8022084F83D0086
:100A7000211D206801F01EF8012084F8460084F84A
:100A80003E0084F83F0084F8400084F8410084F878
:100A9000420084F8430084F8440084F8450084F858
:100AA0003D00002010BD000000B585B00021009180
:100AB0000191029103910068174988422AD1174891
:100AC000C16941F00201C161C16901F002010491F3
:100AD000816941F0080181618069694600F0080080
:100AE0000490102000900220019003900C48FFF722
:100AF000AFFD0C48416821F4406141F0E06141F4F0
:100B000000614160002211461D20FFF703FF1D20F8
:100B1000FFF7F2FE05B000BD0004004000100240E7
:100B2000000C01400000014070B5044690F83C0004
:100B30000025012817D0012684F83C60022084F8A3
:100B40003D002068826822F0770222F47F428260B2
:100B50000868502838D00DDC20284FD005DC90B331
:100B6000102811D14AE0022070BD302846D040281C
:100B70000AD13BE060282FD070280DD0B0F5805FFF
:100B800003D0B0F5005F12D0012584F83D6000204D
:100B900084F83C00284670BDCB68D1E9012120686B
:100BA00000F0D1FF2068816841F0770109E0CB684F
:100BB000D1E90121206800F0C6FF2068816841F476
:100BC00080418160E1E719E0CA684968206801F066
:100BD0006FF85021206806E0CA684968206801F073
:100BE00078F86021206800F0B8FFCEE7CA6849684D
:100BF000206801F05DF840212068F4E72268014692
:100C00001046F0E72DE9F0410D46040003D094F8BA
:100C10003D0018B108E00120BDE8F081002084F813
:100C20003C00204600F040F8022084F83D00206897
:100C3000816844F2070291438160211D206800F021
:100C400039FF226890689169166A2B68AF6903437F
:100C500040F20330814341EA0721A868EF69084365
:100C60004FF6FC418843E96840EA072001432869C0
:100C70002F6A000140EA0730084369686D6926F071
:100C8000220646EA0515294393602268906154F8CC
:100C9000460B0162012004F81F09E0752076E0761A
:100CA0002077A0750020B7E700B585B0002100913E
:100CB0000191029103911B4A01681B48914215D191
:100CC000816941F400618161816901F400610491ED
:100CD000816941F0040181618069694600F0040086
:100CE00004904FF440700090104816E0104A914272
:100CF00015D1C16941F00401C161C16901F004016C
:100D00000491816941F0080181618069694600F0C0
:100D100008000490C02000900648FFF799FC05B039
:100D200000BD0000002C01400010024000080140FE
:100D300000080040000C014070472DE9F0410446D6
:100D40000068C66805694FF00007A90713D5B10709
:100D500011D5F91E01610120207720688069800784
:100D6000204602D0FFF7E8FF04E000F0CBF8204671
:100D700000F06EF92777680716D5700714D521683B
:100D80006FF004000861022020772068806910F469
:100D9000407F204602D0FFF7CFFF04E000F0B2F81A
:100DA000204600F055F92777280715D5300713D5C9
:100DB00021686FF008000861042020772068C0696E
:100DC0008007204602D0FFF7B7FF04E000F09AF852
:100DD000204600F03DF92777E80616D5F00614D531
:100DE00021686FF010000861082020772068C06932
:100DF00010F4407F204602D0FFF79EFF04E000F091
:100E000081F8204600F024F92777E80708D0F0079A
:100E100006D021686FF001000861204600F068F9F3
:100E2000280608D5300606D521686FF080000861D5
:100E30002046FFF7D5FD680608D5700606D521685F
:100E40006FF040000861204600F053F9A8060AD56B
:100E5000B00608D521686FF0200008612046BDE883
:100E6000F041FFF7BEBDBDE8F081000030B585B0B0
:100E70000021009101910291039103681D49022212
:100E80001D481E4CB3F1804F1BD01D4DAB4216D1F7
:100E90008B6943F008038B618969039201F00801B3
:100EA00004910321CDE900126946FFF7D1FB606888
:100EB00020F4406040F0E06040F40060606005B005
:100EC00030BD8B6943F008038B618969039201F09F
:100ED000080104914FF44061CDE900126946FFF723
:100EE000B7FB606820F4407040F0E06040F40070B0
:100EF000E4E7000000100240000C01400000014047
:100F000000040040704770B5044690F83C0000268D
:100F10000D4601280FD0012084F83C006AB1042A54
:100F20001DD0082A2FD00C2A3FD00126002084F89B
:100F30003C00304670BD022070BD206800F016FEF7
:100F40002068816941F0080181612068816921F090
:100F500004018161206881692A69114311E02068D8
:100F600000F02CFE2068816941F4006181612068F5
:100F7000816921F480618161206881692A6941EA7F
:100F800002218161D2E7206800F044FE2068C16937
:100F900041F00801C1612068C16921F00401C1610B
:100FA0002068C1692A69114311E0206800F05EFEE3
:100FB0002068C16941F40061C1612068C16921F400
:100FC0008061C1612068C1692A6941EA0221C16169
:100FD000ACE710B5040003D094F83D0010B107E071
:100FE000012010BD002084F83C00204600F01EF8CF
:100FF000022084F83D00211D206800F05BFD0120E7
:1010000084F8460084F83E0084F83F0084F84000ED
:1010100084F8410084F8420084F8430084F84400D6
:1010200084F8450084F83D00002010BD08B5006834
:10103000B0F1804F08D10548C16941F00101C1619B
:10104000C06900F00100009008BD000000100240DF
:101050007047000010B50446022249B104290ED0A1
:10106000082913D094F84100012816D0012010BDA2
:1010700094F83E000128F9D184F83E200FE094F85E
:101080003F000128F2D184F83F2008E094F84000A6
:101090000128EBD184F8402001E084F841200122AE
:1010A000206800F043FD0F492068884203D1426C5C
:1010B00042F4004242642068884208D0B0F1804F78
:1010C00005D00949884202D00849884204D1816884
:1010D00001F00701062903D0016841F00101016018
:1010E000002010BD002C014000040040000800401A
:1010F0007047704770477047F8B501680446086844
:10110000CA684B6910F00F0F4FF0000559D003F07B
:10111000010602F49077374365D0C10705D0D105A9
:1011200003D5616C41F001016164410705D5D90720
:1011300003D0616C41F002016164810705D5D907D4
:1011400003D0616C41F004016164010707D502F02E
:101150002001314303D0616C41F008016164616C8E
:1011600000293AD0800604D5900602D5204600F02A
:101170002FFE20684069616CC0F38010090700D41D
:1011800060B3204600F0BFFD20684069400621D5CD
:101190002068143050E8001F21F0400140E80012A0
:1011A000002AF5D1E06BA8B16D494163E06BFFF710
:1011B00019F9002811D0E06B416B01B0BDE8F04097
:1011C000084783060FD593060DD52046BDE8F840A5
:1011D00000F0FEBD2046FFF78EFFF8BD2046FFF76A
:1011E0008AFF6564F8BD266B2023012E7CD1C606DC
:1011F0007AD5D60678D508684868009048694FF0D7
:101200000206400640D5E16B086840680004000C07
:10121000E8D0A28D8242E5D9E085886920282DD0CA
:1012200020680C3050E8001F21F4807140E8001263
:10123000002AF5D12068143050E8001F21F0010188
:1012400040E80012002AF5D12068143050E8001F51
:1012500021F0400140E80012002AF5D184F8423024
:10126000256320680C3050E8001F21F0100140E891
:101270000012002AF5D1E06BFFF791F86663A08DAC
:10128000E18D401A81B22AE0A08DE18D401A81B231
:10129000E08D0028A6D00029A4D022680C3252E8A4
:1012A000000F20F4907042E80007002FF5D120686D
:1012B000143050E8002F22F0010240E80027002FF0
:1012C000F5D184F84230256320680C3050E8002FB7
:1012D00022F0100240E80023002BF5D1666320467F
:1012E000FFF708FFF8BDFFE705062BD5150629D542
:1012F00094F841002128F5D1A068B0F5805F01D1B4
:101300002069B0B1206A411C2162216800784860E0
:10131000E08C401E0004000CE084E3D12068C1682A
:1013200021F08001C1602068C16841F04001C160C6
:10133000D8E7206A0088C0F308004860206A801C53
:101340002062E5E74006CDD55006CBD5CA682046D9
:1013500022F04002CA6084F8413000F0D9F8C1E7B9
:10136000F71C000870B5040004D094F84100002573
:1013700010B106E0012070BD84F84050204600F016
:1013800023F8242084F841002068C16821F400512A
:10139000C160204600F07EFD2068016921F4904183
:1013A00001612068416921F02A0141612068C1681A
:1013B00041F40051C1606564202084F8410084F844
:1013C00042006563002070BDF0B585B0002406467C
:1013D000009401940294039400682C49884253D1EC
:1013E0002B48C16941F40031C161C16901F4003188
:1013F0000491816941F0040181618069254D00F00B
:101400000400049004200090022001900320039027
:1014100069462846FFF71CF90820CDE90004694613
:1014200028460294FFF714F91C4D1B488027C5E994
:101430000004C5E902472C616C61AC612846EC618F
:10144000FFF7C6F808B1FEF7A8FFF5636E62134D0B
:1014500011484435143001C5102091C50F4845F896
:10146000104944306C61AC61EC61FFF7B1F808B130
:10147000FEF793FFB5630022114626206E62FFF748
:1014800049FA2620FFF738FA05B0F0BD00440040C5
:1014900000100240000801406C000240C40200201D
:1014A00090F84230202B01D00220704721B11AB1B0
:1014B0000023036300F04ABD0120704710B50068A7
:1014C0000F4988421BD10F480F4A01788388D154B5
:1014D0008188491C01F07F0181808188C288914206
:1014E00004D1C188491C01F07F01C1800122054956
:1014F0000648FFF7D5FFBDE8104000F02BBC10BD3B
:1015000000440040000000209C0000207C020020DD
:101510007047FEE72DE9F0414FF400451E4E6F1174
:10152000DFF878800446B0F5000F0FDB0122294672
:101530003046FFF77DF9002239464046FFF778F93B
:10154000204601F019F880B200F01AFA14F1FF4FAA
:1015500010D3002229463046FFF76AF901223946A6
:101560004046FFF765F984F0004001F005F880B2CD
:1015700000F006FA14F0FF4F0BD100222946304646
:10158000FFF756F939464046BDE8F0410022FFF723
:101590004FB9BDE8F0810000000C01400008014097
:1015A0002DE9F0411E4D0446AF144FF40056B0F53E
:1015B000000F0FDB002231462846FFF739F90122E0
:1015C00039462846FFF734F9204600F0D5FF80B2AF
:1015D00000F0CAF914F1FF4F10D30122314628461A
:1015E000FFF726F9002239462846FFF721F984F053
:1015F000004000F0C1FF80B200F0B6F914F0FF4FD8
:101600000BD1002231462846FFF712F93946284609
:10161000BDE8F0410022FFF70BB9BDE8F081000002
:10162000000C01400D4808B5416941F001014161DC
:101630004069002200F00100009011461020FFF7E1
:1016400069F91020FFF758F9002211461120FFF721
:1016500061F9BDE808401120FFF74EB900100240C3
:101660002DE9F04F85B000242E4800940194029497
:101670000394816941F010018161816901F01001D9
:101680000491816941F020018161816901F02001AB
:101690000491816941F004018161816901F00401D3
:1016A0000491816941F0080181618069DFF87890D7
:1016B00000F008004FF440450490002229464846B7
:1016C000FFF7B6F8DFF864A049F630470022394644
:1016D0005046FFF7ADF8DFF858B04FF20838002257
:1016E00041465846FFF7A4F80095022601250396C7
:1016F000CDE9015469464846FEF7AAFF00970396D4
:10170000CDE9015469465046FEF7A2FFCDF80080AE
:101710000396CDE9015469465846FEF799FF05B096
:10172000BDE8F08F001002400010014000080140A9
:10173000000C014010B58CB024216846FEF789FDED
:1017400000241648099414490A94C0E900144FF67D
:10175000FF71C0E902410461446184610120CDE967
:101760000004CDE902040494CDE9054007946946DC
:101770000A480894FFF746FA08B1FEF70EFE0994EE
:1017800009A906480A94FFF72DF9002801D0FEF7B1
:1017900004FE0CB010BD0000002C01405C010020D4
:1017A00010B58AB0002407941C2168460894FEF7FF
:1017B00050FD19484FF0804101604721C0E90114F4
:1017C0006321C0E903148461FFF703FC08B1FEF74D
:1017D000E4FD079407A910480894FFF703F908B13E
:1017E000FEF7DBFD6020CDE9000402940822694683
:1017F00009480494FFF787FB08B1FEF7CEFD0C22E1
:1018000069460548FFF77FFB08B1FEF7C6FD0248B1
:10181000FFF72CFB0AB010BDA401002010B58EB05C
:1018200000240794089409940A940B941C21684698
:101830000C94FEF70EFD2248204901604721C0E9C3
:1018400001146321C0E903148461FFF7FFF808B1B4
:10185000FEF7A3FD4FF48050079007A91848FFF743
:1018600063F908B1FEF799FD1548FFF7B2FB08B11F
:10187000FEF793FD0B940BA911480C94FFF7B2F8F7
:1018800008B1FEF78AFD6020CDE900040294082229
:1018900069460B480494FFF736FB08B1FEF77DFD5F
:1018A0000C2269460648FFF72EFB08B1FEF775FDCE
:1018B0000348FFF7DBFA0EB010BD00000004004043
:1018C000EC01002010B58CB024216846FEF7C1FC65
:1018D00000241548099413490A94C0E900144FF6EE
:1018E000FF71C0E90241046184610120CDE9000477
:1018F000CDE902040494CDE90540079469460A48FD
:101900000894FFF77FF908B1FEF747FD099409A98C
:1019100005480A94FFF766F8002801D0FEF73DFD60
:101920000CB010BD00080040340200200C4810B577
:101930000A4901604FF4E1314160002181600C22CD
:10194000C160C0E904128161C161FFF70BFD00288D
:1019500003D0BDE81040FEF720BD10BD004400409C
:101960007C020020FEE7FEE7014909680864704731
:10197000A401002001490968C8637047EC010020F8
:1019800001490968C8637047A4010020014909683A
:1019900008647047EC0100207047000070B51D4DD1
:1019A0001D4E0446B0F5000F0FDB0122082128462A
:1019B000FEF73EFF002210213046FEF739FF204699
:1019C00000F0DAFD80B2FFF7E1FF14F1FF4F10D312
:1019D000002208212846FEF72BFF01221021304665
:1019E000FEF726FF84F0004000F0C6FD80B2FFF74E
:1019F000CDFF14F0FF4F0BD1002208212846FEF73F
:101A000017FF3046BDE8704000221021FEF710BFDE
:101A100070BD0000000C0140000801402DE9F041BC
:101A20001E4D0446EF144FF48056B0F5000F0FDB47
:101A3000012231462846FEF7FBFE002239462846A1
:101A4000FEF7F6FE204600F097FD80B2FFF792FF0A
:101A500014F1FF4F10D3002231462846FEF7E8FE6E
:101A6000012239462846FEF7E3FE84F0004000F0EC
:101A700083FD80B2FFF77EFF14F0FF4F0BD10022F1
:101A800031462846FEF7D4FE39462846BDE8F041E7
:101A90000022FEF7CDBEBDE8F08100000008014045
:101AA0007047FEF7D1BE70470148FFF746B9000006
:101AB000EC010020F0B50268194B1A4C1A4D4FF09A
:101AC0008047984205D0B84203D0A04201D0A84236
:101AD00003D122F070064A683243984205D0B842DA
:101AE00003D0A04201D0A84203D122F44074CA68B6
:101AF00022434C6922F08002224302608A68C2625B
:101B00000A688262984201D1096901630121416139
:101B10000169C90703D0016921F001010161F0BD2C
:101B2000002C0140000400400008004010B501F006
:101B30001F030121046A99408C430462016A9A40A0
:101B40001143016210BD10B5846842EA032224F4F7
:101B50007F440A432243826010BD826822F07002F3
:101B60000A4342F0070181607047000030B5036A04
:101B7000026A22F0010202624268846924F073055D
:101B80000C682C4323F002058B682B430A4DA842B6
:101B90000BD123F00805CB6822F440722B434D692A
:101BA00023F0040315438A692A434260846149682B
:101BB0004163036230BD0000002C014030B5026A71
:101BC000036A23F010030362436884690D6824F4F8
:101BD000E64444EA05248D6822F0200242EA051218
:101BE0000B4DA8420ED1CD6822F0800242EA0512C8
:101BF0004D6923F4406343EA85038D6922F0400276
:101C000043EA85034360846149688163026230BDB1
:101C1000002C014030B5036A026A22F4807202622D
:101C20004268C46923F4007324F073050C682C43E4
:101C30008D6843EA05230C4DA8420ED1CD6823F4EC
:101C4000006343EA05234D6922F4405242EA05123B
:101C50008D6923F4806342EA05124260C4614968D9
:101C6000C163036230BD0000002C014030B5046A3E
:101C7000026A22F4805202624268C3690D6823F44A
:101C8000E64343EA05238D6824F4005444EA05340E
:101C9000064DA84204D14D6922F4804242EA8512E1
:101CA0004260C36149680164046230BD002C014098
:101CB00010B5036A046A24F001040462846924F004
:101CC000F00444EA021423F00A020A438461026227
:101CD00010BD10B5036A046A24F01004046284691C
:101CE00023F0A00324F4704444EA023243EA0111D1
:101CF0008261016210BD10B5406A0021C185C184B6
:101D0000FFF7F9F910BD01680C3151E8002F22F4FA
:101D1000907241E80023002BF5D10168143151E89D
:101D2000002F22F0010241E80023002BF5D1016BC6
:101D3000012909D101680C3151E8002F22F010026D
:101D400041E80023002BF5D1202180F8421000212A
:101D5000016370472DE9F04100261B4D1B4C012704
:101D60001BE02978AA2914D1032816D3B5F801104D
:101D7000091D8AB290420ED3A81810F8010C5528FC
:101D800007D1402A05D8104901F58070FEF71CFAEA
:101D9000A770268101E08028FBD2E088A1888842D4
:101DA00010D00948E1888030415CE088401C00F098
:101DB0007F00E08020892954401C80B220810128C6
:101DC000D2D1CEE7BDE8F0811C0000200000002049
:101DD00008B590F84210222901D0022008BD82687F
:101DE0004FF480539A4201D1016921B1816A9A422C
:101DF0001BD04AB10AE00268816A5268C2F3080245
:101E00000A80816A891C08E0026972B1026852681E
:101E100002F07F020A70816A491C8162C18D491EED
:101E20000904090CC18503D01BE002685268F1E780
:101E30000168CA6822F02002CA600168CA6822F4F8
:101E40008072CA6001684A6922F001024A61202159
:101E500080F8421000214163026B012A03D0FFF792
:101E60002DFB002008BD016301680C3151E8002FF3
:101E700022F0100241E80023002BF5D101680A6826
:101E8000D20602D50A6849680091818DFFF732F9C0
:101E9000E7E7000070B5044600680169E26821F4D4
:101EA0004051114301612169A068084361690843F9
:101EB0002168CA6841F20C639A430243CA602068F1
:101EC0004169A26921F44071114341611E492068B2
:101ED000884202D1FEF760FD01E0FEF74DFD00EB08
:101EE000C00101EB0012606864218000B2FBF0F3D6
:101EF000B3FBF1F36FF018067343B2FBF0F5B2FBDE
:101F0000F0F605EB8305322303EB0515B5FBF1F580
:101F1000B6FBF1F605F0F00505EB0615B2FBF0F6A1
:101F2000B2FBF0F0B0FBF1F06FF01802504306EB9B
:101F3000800003EB0010B0FBF1F0216800F00F000F
:101F40002844886070BD00000038014081628285AD
:101F5000C28500214164222180F84210016921B12B
:101F60000168CA6842F48072CA6001684A6942F036
:101F700001024A610068C16841F02001C16000208F
:101F8000704700000148FFF7B7B800007C0200204E
:101F9000FEE70907090E002804DB00F1E02080F8C5
:101FA0000014704700F00F0000F1E02080F8141DCD
:101FB0007047000010B5074C2046FFF7F1FA2046A5
:101FC000FFF7A8FA2046FFF729FD2046BDE810409C
:101FD000FFF7E4BC00000C42FFF7ECBF10B5002097
:101FE000FFF7DEFA0020FFF795FA0020FFF716FD55
:101FF000BDE810400020FFF7D1BC000010B5074835
:10200000FFF7CEFA0648FFF785FA0648FFF706FD08
:10201000BDE810400448FFF7C1BC00000000C8C183
:102020000000F0C10000C8410000A04110B5084CFC
:102030002046FFF7B5FA2046FFF76CFA054C20461C
:10204000FFF7ECFC2046BDE81040FFF7A7BC0000FE
:102050000000C84100000C4210B5084C2046FFF7B4
:102060009FFA2046FFF756FA054C2046FFF7D6FCAC
:102070002046BDE81040FFF791BC00000000C841B9
:1020800000000C4210B5084C2046FFF789FA2046A4
:10209000FFF740FA054C2046FFF7C0FC2046BDE89C
:1020A0001040FFF77BBC0000000070C100007041D1
:1020B00010B50748FFF774FA0648FFF72BFA0648F1
:1020C000FFF7ACFCBDE810400448FFF767BC000018
:1020D0000000A0410000C8410000F0C10000C8C1DC
:1020E00010B5084C2046FFF75BFA2046FFF712FABE
:1020F000054C2046FFF792FC2046BDE81040FFF754
:102100004DBC000000000C420000C84110B5084C56
:102110002046FFF745FA2046FFF7FCF9054C20461C
:10212000FFF77CFC2046BDE81040FFF737BC0000FD
:1021300000000C420000C84110B5084C2046FFF7D3
:102140002FFA2046FFF7E6F9054C2046FFF766FC1C
:102150002046BDE81040FFF721BC000000007041A0
:10216000000070C11FB5FEF777FBFFF779FAFFF7A4
:1021700059FAFFF7DBFBFFF7DDFAFFF711FBFFF77B
:102180004DFBFFF79FFB0821F348FEF763FF0C218F
:10219000F148FEF75FFF0821F048FEF75BFF0C21D6
:1021A000EE48FEF757FF0122ED49EE48FFF778F9B8
:1021B0000024DFF8B493DFF8A8A3A34601940394A6
:1021C0004FF48048274602940122D103E748FEF7E6
:1021D0002FFB01224146E648FEF72AFB9AF802004F
:1021E00051460028F0D08F70B9F801204846022AE5
:1021F000EAD3C578037900260093032A01D399F81E
:1022000005609AF8010001286FD15CB1012CDBD187
:10221000DEB3012ED8D1BAF804100024491EAAF862
:102220000610D1E7032D05D0052D03D0062D01D0D2
:10223000072D00D10124082D57D2DFE805F0040B4B
:102240001219273D1919052B4FD2DFE803F0262973
:102250002C2F3200052B48D2DFE803F01F2225285F
:102260002B00052B41D2DFE803F0181B1E212400B0
:10227000FFF7B4FE4FF49670FEF7D8F9FFF718FF9A
:102280004FF4FA70FEF7D2F92FE02CE0052B2CD298
:10229000DFE803F00306090C0F00FFF78BFE24E0D4
:1022A000FFF7C4FE21E0FFF71BFF1EE0FFF744FF2E
:1022B0001BE0FFF7E7FE18E0FFF790FE4FF4967083
:1022C000FEF7B4F9FFF7F4FE4FF4FA70FEF7AEF93B
:1022D0009AF801100122491C8AF801104146A548CC
:1022E000FEF7A6FA01E0FFF7E3FE9AF801000228E4
:1022F0006BD11CB1012C94D196B374E0052D07D09D
:10230000082D62D2DFE805F01921303840055C4E17
:102310000124FFF763FE4FF49670FEF787F9FFF78D
:10232000C7FE4FF4FA70FEF781F90BF1010000F0DF
:10233000FF0BBBF1040F2FD047E00098052844D2D3
:10234000DFE800F03E383B0B0F00009805283CD238
:10235000DFE800F0363033030700FFF7EDFE34E02E
:1023600031E0FFF78FFE30E0009805282DD2DFE83E
:1023700000F02721242727000098052825D2DFE830
:1023800000F01F191C1F1F00009805281DD2DFE850
:1023900000F01711141717009AF80110491C8AF859
:1023A000011012E0009805280FD2DFE800F00903C1
:1023B00006090900FFF750FE07E0FFF7A7FE04E05B
:1023C000FFF70AFE01E0FFF773FE9AF801100329F8
:1023D00091D101218AF803104CB1012C7ED0022C3E
:1023E00089D1002E7BD0012E85D10024ECE6062D6C
:1023F0000DD0022D0FD0042D11D0072D14D0082D93
:10240000F4D2DFE805F0172E094C0D6D058101248B
:10241000039878B316E00224029860B312E0022415
:10242000019801284AD90DE0019808B101246DE016
:10243000022478E000980528D8D2DFE800F00306EF
:10244000090C0F00FFF7B6FDBEE6FFF7EFFDBBE698
:10245000FFF746FEB8E6FFF76FFEB5E6FFF712FEA0
:10246000B2E600980528C1D2DFE800F009080706A7
:102470000300F3E739E003E0EDE7E9E7E5E7E1E74B
:10248000FFF7ACFD4FF49670FEF7D0F8FFF7B6FDFE
:102490004FF4FA70FEF7CAF80120029094E6FFF7B5
:1024A0009BFD00980528A1D2DFE800F0070605048F
:1024B0000300D3E7CFE7CBE7C7E7C3E7FFF78EFD1E
:1024C0004FF49670FEF7B2F8FFF798FD4FF4FA70EC
:1024D000FEF7ACF80198401C80B231E032E037E002
:1024E000FFF768FD8AF803706EE6FFF777FD4FF49B
:1024F0009670FEF79BF8FFF7DBFD4FF4FA70FEF7DE
:1025000095F8012003905FE6019860B1FFF766FD42
:102510004FF49670FEF78AF8FFF7CAFD4FF4FA7091
:10252000FEF784F850E6FFF759FD4FF49670FEF77A
:102530007DF8FFF763FD4FF4FA70FEF777F801209E
:10254000019041E6002E7FF4D8AEFFF7B1FD3BE6E7
:10255000FFF754FD38E60000A4010020EC01002044
:10256000000000207C0200201C0100200008014027
:10257000000C014000100140C10DD1F19E0206DBAC
:102580004FEA002343F0004323FA02F07047004271
:1025900007D54FEA4001B1F1FE4F02D24FF00000E3
:1025A000704710B500F007F849922480002070476A
:1025B0006FEA200070470EF1020E2EF0030E5EF857
:1025C000044B244204D44FEA4102B2F17F4F11D8A8
:1025D0004FEA4003B3F17F4F0CD80ED14FEAD07CC5
:1025E000B2F17F4F0CEB4C0C0CF1020C08BF4CEB22
:1025F000D17C04E04FF0080C01E04FEAD17C0CEBF9
:102600004C0324FA03F404F00704B4F1040C06D2DA
:102610000EEB840CBDE810404CF0010C6047DFE885
:102620000CF0070802024FF00040A0F5800010BD3A
:102630000846420018BFD2F1807288BF00F0004007
:1026400010BD000000000102030400006C26000819
:10265000000000201C000000280100088826000857
:102660001C00002094090000440100080001000043
:102670000000000000000000010000001000000049
:082680000000000000127A00C6
:04000005080000ED02
:00000001FF
